:100000000C9434000C9449000C9449000C94490061
:100010000C9449000C9449000C9449000C9449003C
:100020000C9449000C9449000C9449000C9449002C
:100030000C9449000C9449000C9449000C9449001C
:100040000C9449000C9449000C9449000C9449000C
:100050000C9449000C9449000C9449000C944900FC
:100060000C9449000C94490011241FBECFEFD8E036
:10007000DEBFCDBF11E0A0E0B1E0E6EAF2E002C0F1
:1000800005900D92A432B107D9F70E94AB000C94F1
:1000900051010C9400009093C5008093C40088E047
:1000A0008093C10086E08093C2000895E0ECF0E008
:1000B000908195FFFDCF8093C6000895CF93DF9385
:1000C000EC018881882331F021960E9456008991A5
:1000D0008111FBCFDF91CF910895529A53980895E3
:1000E000219A82E8809380008BE18093810087E8E9
:1000F00093E1909387008093860081E690E090934F
:1001000089008093880008955A988AE08A95F1F7CB
:1001100000C05A9A85E38A95F1F700005A984B9BE4
:10012000FECF20E030E04B9B0BC0203385E7380743
:1001300039F085E08A95F1F700002F5F3F4FF3CF4C
:10014000AFE9B6E40E940D01929582958F708927E0
:100150009F7089270895CF93DF93CDB7DEB72A9795
:100160000FB6F894DEBF0FBECDBF87E690E00E94C9
:100170004B000E946D000E9470008AB180638AB9B2
:1001800080E091E00E945E000F2EF8E8EF2EF12C47
:10019000F02D0F2EF1E6CF2ED12CF02D0F2EF6E7FD
:1001A000AF2EBB24B394F02D0E9484008C014AE052
:1001B000BE016F5F7F4F0E941C0182E191E00E94AF
:1001C0005E00CE0101960E945E008DE191E00E94EA
:1001D0005E000832110590F4F701B182A0825D9AA9
:1001E0005C98FFEF27EA81E6F15020408040E1F77C
:1001F00000C00000F701D182C08205C0F701D182A2
:10020000C0825C9A5D98FFEF29E688E1F1502040BA
:100210008040E1F700C00000C7CFA29FB001B39FAC
:10022000C001A39F700D811D1124911DB29F700DFF
:10023000811D1124911D0895BB274A3031F4992363
:1002400022F4BDE2909581959F4F0C942801BB2725
:10025000FB015527AA27880F991FAA1FA41710F082
:10026000A41B83955051B9F7A05DAA3308F0A95D8E
:10027000A193009779F7B111B1931192CB010C942E
:100280004101DC01FC01672F71917723E1F732977F
:1002900004C07C916D9370836291AE17BF07C8F361
:0602A0000895F894FFCF61
:1002A60053797374656D2072656164792E2E2E0DF7
:1002B6000A0044697374616E63653A200020636DB9
:0402C6000D0A00001D
:00000001FF
